{
  "contractName": "Lottery",
  "abi": [
    {
      "inputs": [],
      "stateMutability": "nonpayable",
      "type": "constructor"
    },
    {
      "anonymous": false,
      "inputs": [
        {
          "indexed": false,
          "internalType": "string",
          "name": "",
          "type": "string"
        }
      ],
      "name": "Msg",
      "type": "event"
    },
    {
      "inputs": [],
      "name": "participate",
      "outputs": [],
      "stateMutability": "payable",
      "type": "function",
      "payable": true
    },
    {
      "inputs": [],
      "name": "declareWinner",
      "outputs": [],
      "stateMutability": "payable",
      "type": "function",
      "payable": true
    }
  ],
  "bytecode": "0x608060405234801561001057600080fd5b50336000806101000a81548173ffffffffffffffffffffffffffffffffffffffff021916908373ffffffffffffffffffffffffffffffffffffffff160217905550610b73806100606000396000f3fe6080604052600436106100295760003560e01c806314034bd21461002e578063d11711a214610038575b600080fd5b610036610042565b005b6100406101a1565b005b60008054906101000a900473ffffffffffffffffffffffffffffffffffffffff1673ffffffffffffffffffffffffffffffffffffffff163373ffffffffffffffffffffffffffffffffffffffff16146100d0576040517f08c379a00000000000000000000000000000000000000000000000000000000081526004016100c7906104ec565b60405180910390fd5b60016100da6102cd565b815481106100eb576100ea61050c565b5b9060005260206000200160009054906101000a900473ffffffffffffffffffffffffffffffffffffffff1673ffffffffffffffffffffffffffffffffffffffff166108fc479081150290604051600060405180830381858888f1935050505015801561015b573d6000803e3d6000fd5b507ff24055cc366c1d53b75688e6ba6eb419d022fb5f4956c5d66a6ef54adbf3270a604051610189906105ad565b60405180910390a16001600061019f919061042b565b565b6101a961037f565b6101e8576040517f08c379a00000000000000000000000000000000000000000000000000000000081526004016101df9061063f565b60405180910390fd5b670de0b6b3a7640000341015610233576040517f08c379a000000000000000000000000000000000000000000000000000000000815260040161022a906106d1565b60405180910390fd5b6001339080600181540180825580915050600190039060005260206000200160009091909190916101000a81548173ffffffffffffffffffffffffffffffffffffffff021916908373ffffffffffffffffffffffffffffffffffffffff1602179055507ff24055cc366c1d53b75688e6ba6eb419d022fb5f4956c5d66a6ef54adbf3270a6040516102c390610763565b60405180910390a1565b6000600180549050600260008054906101000a900473ffffffffffffffffffffffffffffffffffffffff16436001323a604051602001610311959493929190610913565b60405160208183030381529060405260405161032d91906109e7565b602060405180830381855afa15801561034a573d6000803e3d6000fd5b5050506040513d601f19601f8201168201806040525081019061036d9190610a39565b60001c61037a9190610a95565b905090565b600080600090505b60018054905081101561042257600181815481106103a8576103a761050c565b5b9060005260206000200160009054906101000a900473ffffffffffffffffffffffffffffffffffffffff1673ffffffffffffffffffffffffffffffffffffffff163373ffffffffffffffffffffffffffffffffffffffff160361040f576000915050610428565b808061041a90610af5565b915050610387565b50600190505b90565b5080546000825590600052602060002090810190610449919061044c565b50565b5b8082111561046557600081600090555060010161044d565b5090565b600082825260208201905092915050565b7f6f6e6c79206f776e65722063616e206465636c6172652077696e6e6572206f6660008201527f20746865206c6f74746572790000000000000000000000000000000000000000602082015250565b60006104d6602c83610469565b91506104e18261047a565b604082019050919050565b60006020820190508181036000830152610505816104c9565b9050919050565b7f4e487b7100000000000000000000000000000000000000000000000000000000600052603260045260246000fd5b7f5072697a65206d6f6e657920686173206265656e2073656e7420746f2074686560008201527f2077696e6e6572207375636365737366756c6c792e0000000000000000000000602082015250565b6000610597603583610469565b91506105a28261053b565b604082019050919050565b600060208201905081810360008301526105c68161058a565b9050919050565b7f796f75206861766520616c72656164792070617274696369706174656420696e60008201527f20746865206c6f74746572790000000000000000000000000000000000000000602082015250565b6000610629602c83610469565b9150610634826105cd565b604082019050919050565b600060208201905081810360008301526106588161061c565b9050919050565b7f506c65617365206465706f736974203120657468657273206f72206d6f72652060008201527f746f2074616b65207061727420696e20746865206c6f74746572790000000000602082015250565b60006106bb603b83610469565b91506106c68261065f565b604082019050919050565b600060208201905081810360008301526106ea816106ae565b9050919050565b7f596f752068617665207375636365737366756c6c79207061727469636970617460008201527f656420696e20746865204c6f7474657279000000000000000000000000000000602082015250565b600061074d603183610469565b9150610758826106f1565b604082019050919050565b6000602082019050818103600083015261077c81610740565b9050919050565b600073ffffffffffffffffffffffffffffffffffffffff82169050919050565b60006107ae82610783565b9050919050565b6107be816107a3565b82525050565b6000819050919050565b6107d7816107c4565b82525050565b600081549050919050565b600082825260208201905092915050565b60008190508160005260206000209050919050565b600061081982610783565b9050919050565b6108298161080e565b82525050565b600061083b8383610820565b60208301905092915050565b60008160001c9050919050565b600073ffffffffffffffffffffffffffffffffffffffff82169050919050565b600061088761088283610847565b610854565b9050919050565b600061089a8254610874565b9050919050565b6000600182019050919050565b60006108b9826107dd565b6108c381856107e8565b93506108ce836107f9565b8060005b83811015610906576108e38261088e565b6108ed888261082f565b97506108f8836108a1565b9250506001810190506108d2565b5085935050505092915050565b600060a08201905061092860008301886107b5565b61093560208301876107ce565b818103604083015261094781866108ae565b905061095660608301856107b5565b61096360808301846107ce565b9695505050505050565b600081519050919050565b600081905092915050565b60005b838110156109a1578082015181840152602081019050610986565b838111156109b0576000848401525b50505050565b60006109c18261096d565b6109cb8185610978565b93506109db818560208601610983565b80840191505092915050565b60006109f382846109b6565b915081905092915050565b600080fd5b6000819050919050565b610a1681610a03565b8114610a2157600080fd5b50565b600081519050610a3381610a0d565b92915050565b600060208284031215610a4f57610a4e6109fe565b5b6000610a5d84828501610a24565b91505092915050565b7f4e487b7100000000000000000000000000000000000000000000000000000000600052601260045260246000fd5b6000610aa0826107c4565b9150610aab836107c4565b925082610abb57610aba610a66565b5b828206905092915050565b7f4e487b7100000000000000000000000000000000000000000000000000000000600052601160045260246000fd5b6000610b00826107c4565b91507fffffffffffffffffffffffffffffffffffffffffffffffffffffffffffffffff8203610b3257610b31610ac6565b5b60018201905091905056fea26469706673582212202cd46eb5358266ab2e1d416ca37488bd2a39853aae50d3cee2411cf5847f553764736f6c634300080d0033",
  "immutableReferences": {},
  "source": "// SPDX-License-Identifier: MIT\npragma solidity >=0.4.22 <0.9.0;\n\ncontract Lottery{\n    address owner;\n    address payable[] players;\n\n    event Msg(string);\n\n    constructor(){\n        owner = msg.sender;\n    }\n\n    function notAlreadyParticipated() private view returns(bool){\n        for(uint i=0;i<players.length;i++){\n            if(msg.sender==players[i]){return false;}\n        }\n        return true;\n    }\n\n    function participate() payable public{\n        // require(msg.sender != owner,\"Owner can't participate in the lottery\"); \n        require(notAlreadyParticipated(),\"you have already participated in the lottery\");\n        require(msg.value>=1 ether,\"Please deposit 1 ethers or more to take part in the lottery\");\n        players.push(payable(msg.sender));\n        emit Msg(\"You have successfully participated in the Lottery\");\n        \n    }\n\n    function generateRandomWinner() private view returns(uint){\n        return uint(sha256(abi.encode(owner, block.number, players,tx.origin, tx.gasprice)))%players.length;\n    }\n\n    function declareWinner() public payable{\n        require(msg.sender==owner,\"only owner can declare winner of the lottery\");\n        players[generateRandomWinner()].transfer(address(this).balance);\n        emit Msg(\"Prize money has been sent to the winner successfully.\");\n        delete players;\n    }\n\n}",
  "sourcePath": "/home/deependu/code/truffle/Lottery/contracts/lottery.sol",
  "compiler": {
    "name": "solc",
    "version": "0.8.13+commit.abaa5c0e.Emscripten.clang"
  },
  "schemaVersion": "3.4.7",
  "updatedAt": "2022-05-17T09:20:45.865Z",
  "networkType": "ethereum",
  "devdoc": {
    "kind": "dev",
    "methods": {},
    "version": 1
  },
  "userdoc": {
    "kind": "user",
    "methods": {},
    "version": 1
  }
}